:100000000C9434000C9480010C94B4010C94E8011D
:100010000C9451000C9451000C9451000C9451001C
:100020000C9451000C9451000C9451000C9451000C
:100030000C9451000C9451000C9451000C945100FC
:100040000C9451000C9451000C9451000C945100EC
:100050000C9451000C9451000C9451000C945100DC
:100060000C9451000C94510011241FBECFEFD8E026
:10007000DEBFCDBF11E0A0E0B1E0E4E1F4E002C0FA
:1000800005900D92AC30B107D9F721E0ACE0B1E0BA
:1000900001C01D92A131B207E1F70E9481000C94CA
:1000A00008020C940000CF93DF93CDB7DEB72A97F8
:1000B0000FB6F894DEBF0FBECDBF9AE0E2E0F1E0EC
:1000C000DE01119601900D929A95E1F7E1E0F0E0E2
:1000D000EC0FFD1FE80FF11D808188B9808186FF3C
:1000E00004C085B1806285B903C085B18F7D85B9B3
:1000F0002A960FB6F894DEBF0FBECDBFDF91CF9129
:1001000008958AB1806F8AB984B18F6284B98FEF04
:1001100087B98AB18B7F8AB98BB184608BB98AB178
:10012000877F8AB98BB188608BB984B18F7E84B99F
:1001300085B1806185B9E9E6F0E080818A608083DD
:100140008DB383608DBBE8E6F0E0808181608083C1
:10015000EBE6F0E0808180618083789480910C01EF
:100160008130C1F40EC08C2F0E9453002FEF83ED1D
:1001700090E3215080409040E1F700C000002197BB
:1001800002C0C5E0D0E0DD2374F781E080930D016B
:1001900010920C0180911001853008F055C09091AB
:1001A0000E01911151C090910D01913009F04CC098
:1001B0008230E1F028F4882341F0813099F044C086
:1001C0008330D9F0843019F13FC08BB18F7E8BB969
:1001D0008BB18F7D8BB98BB18F7B8BB98BB18F77C7
:1001E0008BB932C08BB180618BB92EC08BB180616D
:1001F0008BB98BB180628BB927C08BB180618BB911
:100200008BB180628BB98BB180648BB91DC08BB10F
:1002100080618BB98BB180628BB98BB180648BB9F3
:100220008BB180688BB981E080930E010E945300EE
:1002300085B18E7F85B985B18D7F85B985B18B7F7D
:1002400085B985B1877F85B980910F01853008F028
:1002500085CF90910E01911181CF90910D01913038
:1002600009F07CCF8230E1F028F4882341F081301E
:1002700099F074CF8330D9F0843019F16FCF85B104
:100280008E7F85B985B18D7F85B985B18B7F85B925
:1002900085B1877F85B962CF85B1816085B95ECF31
:1002A00085B1816085B985B1826085B957CF85B147
:1002B000816085B985B1826085B985B1846085B971
:1002C0004DCF85B1816085B985B1826085B985B131
:1002D000846085B985B1886085B981E080930E011D
:1002E00082E00E9453008BB18F7E8BB98BB18F7DE2
:1002F0008BB98BB18F7B8BB98BB18F778BB92ECFAD
:100300001F920F920FB60F9211248F939F93EF932A
:10031000FF938FE19EE40197F1F700C000004A9B34
:100320000BC019C04A9B9F5FEFE3FFE13197F1F7E4
:1003300000C000008F5F02C080E090E0843190F345
:10034000933148F080910D01813029F480911001A2
:100350008F5F80931001FF91EF919F918F910F908C
:100360000FBE0F901F9018951F920F920FB60F920D
:1003700011248F939F93EF93FF938FE19EE4019756
:10038000F1F700C000004B9B0BC019C04B9B9F5F57
:10039000EFE3FFE13197F1F700C000008F5F02C08B
:1003A00080E090E0843190F3933148F080910D012A
:1003B000813029F480910F018F5F80930F01FF91AD
:1003C000EF919F918F910F900FBE0F901F901895F6
:1003D0001F920F920FB60F9211248F939F9383B1A8
:1003E000807180930001811108C0909101019130CA
:1003F00021F41092010190930C01813011F480934B
:1004000001019F918F910F900FBE0F901F90189533
:04041000F894FFCF8E
:0C04140001013F18767C596D6F387F7D28
:040000050080010D69
:00000001FF
